{
  "contractName": "EscrowContract",
  "abi": [
    {
      "inputs": [
        {
          "internalType": "address",
          "name": "_payee",
          "type": "address"
        },
        {
          "internalType": "address",
          "name": "_arbiter",
          "type": "address"
        }
      ],
      "stateMutability": "nonpayable",
      "type": "constructor"
    },
    {
      "anonymous": false,
      "inputs": [
        {
          "indexed": true,
          "internalType": "address",
          "name": "payer",
          "type": "address"
        },
        {
          "indexed": false,
          "internalType": "uint256",
          "name": "amount",
          "type": "uint256"
        }
      ],
      "name": "FundsDeposited",
      "type": "event"
    },
    {
      "anonymous": false,
      "inputs": [
        {
          "indexed": true,
          "internalType": "address",
          "name": "payer",
          "type": "address"
        },
        {
          "indexed": false,
          "internalType": "uint256",
          "name": "amount",
          "type": "uint256"
        }
      ],
      "name": "FundsWithdrawn",
      "type": "event"
    },
    {
      "anonymous": false,
      "inputs": [
        {
          "indexed": true,
          "internalType": "address",
          "name": "payer",
          "type": "address"
        },
        {
          "indexed": true,
          "internalType": "address",
          "name": "payee",
          "type": "address"
        },
        {
          "indexed": false,
          "internalType": "uint256",
          "name": "amount",
          "type": "uint256"
        }
      ],
      "name": "ReleaseApproved",
      "type": "event"
    },
    {
      "inputs": [],
      "name": "amount",
      "outputs": [
        {
          "internalType": "uint256",
          "name": "",
          "type": "uint256"
        }
      ],
      "stateMutability": "view",
      "type": "function"
    },
    {
      "inputs": [],
      "name": "arbiter",
      "outputs": [
        {
          "internalType": "address",
          "name": "",
          "type": "address"
        }
      ],
      "stateMutability": "view",
      "type": "function"
    },
    {
      "inputs": [],
      "name": "fundsDeposited",
      "outputs": [
        {
          "internalType": "bool",
          "name": "",
          "type": "bool"
        }
      ],
      "stateMutability": "view",
      "type": "function"
    },
    {
      "inputs": [],
      "name": "payee",
      "outputs": [
        {
          "internalType": "address payable",
          "name": "",
          "type": "address"
        }
      ],
      "stateMutability": "view",
      "type": "function"
    },
    {
      "inputs": [],
      "name": "payer",
      "outputs": [
        {
          "internalType": "address payable",
          "name": "",
          "type": "address"
        }
      ],
      "stateMutability": "view",
      "type": "function"
    },
    {
      "inputs": [],
      "name": "releaseApproved",
      "outputs": [
        {
          "internalType": "bool",
          "name": "",
          "type": "bool"
        }
      ],
      "stateMutability": "view",
      "type": "function"
    },
    {
      "inputs": [],
      "name": "deposit",
      "outputs": [],
      "stateMutability": "payable",
      "type": "function"
    },
    {
      "inputs": [],
      "name": "releaseToPayee",
      "outputs": [],
      "stateMutability": "nonpayable",
      "type": "function"
    },
    {
      "inputs": [],
      "name": "withdraw",
      "outputs": [],
      "stateMutability": "nonpayable",
      "type": "function"
    }
  ],
  "bytecode": "0x608060405234801561001057600080fd5b50604051610eca380380610eca83398181016040528101906100329190610146565b336000806101000a81548173ffffffffffffffffffffffffffffffffffffffff021916908373ffffffffffffffffffffffffffffffffffffffff16021790555081600160006101000a81548173ffffffffffffffffffffffffffffffffffffffff021916908373ffffffffffffffffffffffffffffffffffffffff16021790555080600260006101000a81548173ffffffffffffffffffffffffffffffffffffffff021916908373ffffffffffffffffffffffffffffffffffffffff1602179055506000600460006101000a81548160ff0219169083151502179055506000600460016101000a81548160ff02191690831515021790555050506101d4565b600081519050610140816101bd565b92915050565b6000806040838503121561015d5761015c6101b8565b5b600061016b85828601610131565b925050602061017c85828601610131565b9150509250929050565b600061019182610198565b9050919050565b600073ffffffffffffffffffffffffffffffffffffffff82169050919050565b600080fd5b6101c681610186565b81146101d157600080fd5b50565b610ce7806101e36000396000f3fe6080604052600436106100865760003560e01c8063ae90b21311610059578063ae90b21314610123578063cacd17151461014e578063cdec458114610179578063d0e30db014610190578063fe25e00a1461019a57610086565b8063123119cd1461008b5780633ccfd60b146100b65780636c6e1417146100cd578063aa8c217c146100f8575b600080fd5b34801561009757600080fd5b506100a06101c5565b6040516100ad91906109a7565b60405180910390f35b3480156100c257600080fd5b506100cb6101e9565b005b3480156100d957600080fd5b506100e26103f1565b6040516100ef91906109c2565b60405180910390f35b34801561010457600080fd5b5061010d610404565b60405161011a9190610a9d565b60405180910390f35b34801561012f57600080fd5b5061013861040a565b60405161014591906109a7565b60405180910390f35b34801561015a57600080fd5b50610163610430565b60405161017091906109c2565b60405180910390f35b34801561018557600080fd5b5061018e610443565b005b6101986106a3565b005b3480156101a657600080fd5b506101af610858565b6040516101bc919061098c565b60405180910390f35b60008054906101000a900473ffffffffffffffffffffffffffffffffffffffff1681565b60008054906101000a900473ffffffffffffffffffffffffffffffffffffffff1673ffffffffffffffffffffffffffffffffffffffff163373ffffffffffffffffffffffffffffffffffffffff1614610277576040517f08c379a000000000000000000000000000000000000000000000000000000000815260040161026e90610a3d565b60405180910390fd5b600460009054906101000a900460ff16156102c7576040517f08c379a00000000000000000000000000000000000000000000000000000000081526004016102be90610a5d565b60405180910390fd5b600460019054906101000a900460ff16610316576040517f08c379a000000000000000000000000000000000000000000000000000000000815260040161030d906109dd565b60405180910390fd5b60008054906101000a900473ffffffffffffffffffffffffffffffffffffffff1673ffffffffffffffffffffffffffffffffffffffff166108fc6003549081150290604051600060405180830381858888f1935050505015801561037e573d6000803e3d6000fd5b5060008054906101000a900473ffffffffffffffffffffffffffffffffffffffff1673ffffffffffffffffffffffffffffffffffffffff167feaff4b37086828766ad3268786972c0cd24259d4c87a80f9d3963a3c3d999b0d6003546040516103e79190610a9d565b60405180910390a2565b600460009054906101000a900460ff1681565b60035481565b600160009054906101000a900473ffffffffffffffffffffffffffffffffffffffff1681565b600460019054906101000a900460ff1681565b600160009054906101000a900473ffffffffffffffffffffffffffffffffffffffff1673ffffffffffffffffffffffffffffffffffffffff163373ffffffffffffffffffffffffffffffffffffffff16146104d3576040517f08c379a00000000000000000000000000000000000000000000000000000000081526004016104ca90610a7d565b60405180910390fd5b600460009054906101000a900460ff1615610523576040517f08c379a000000000000000000000000000000000000000000000000000000000815260040161051a90610a5d565b60405180910390fd5b600460019054906101000a900460ff16610572576040517f08c379a0000000000000000000000000000000000000000000000000000000008152600401610569906109dd565b60405180910390fd5b6001600460006101000a81548160ff021916908315150217905550600160009054906101000a900473ffffffffffffffffffffffffffffffffffffffff1673ffffffffffffffffffffffffffffffffffffffff166108fc6003549081150290604051600060405180830381858888f193505050501580156105f7573d6000803e3d6000fd5b50600160009054906101000a900473ffffffffffffffffffffffffffffffffffffffff1673ffffffffffffffffffffffffffffffffffffffff1660008054906101000a900473ffffffffffffffffffffffffffffffffffffffff1673ffffffffffffffffffffffffffffffffffffffff167fbd2b6ec1ab7e5ef81eab3d7b042bd458e701ee86c4c27192fec85ed28c8740dd6003546040516106999190610a9d565b60405180910390a3565b60008054906101000a900473ffffffffffffffffffffffffffffffffffffffff1673ffffffffffffffffffffffffffffffffffffffff163373ffffffffffffffffffffffffffffffffffffffff1614610731576040517f08c379a000000000000000000000000000000000000000000000000000000000815260040161072890610a3d565b60405180910390fd5b600460019054906101000a900460ff1615610781576040517f08c379a000000000000000000000000000000000000000000000000000000000815260040161077890610a1d565b60405180910390fd5b600034116107c4576040517f08c379a00000000000000000000000000000000000000000000000000000000081526004016107bb906109fd565b60405180910390fd5b346003819055506001600460016101000a81548160ff02191690831515021790555060008054906101000a900473ffffffffffffffffffffffffffffffffffffffff1673ffffffffffffffffffffffffffffffffffffffff167f543ba50a5eec5e6178218e364b1d0f396157b3c8fa278522c2cb7fd99407d47460035460405161084e9190610a9d565b60405180910390a2565b600260009054906101000a900473ffffffffffffffffffffffffffffffffffffffff1681565b61088781610adb565b82525050565b61089681610ac9565b82525050565b6108a581610aed565b82525050565b60006108b8602183610ab8565b91506108c382610b23565b604082019050919050565b60006108db601f83610ab8565b91506108e682610b72565b602082019050919050565b60006108fe602183610ab8565b915061090982610b9b565b604082019050919050565b6000610921602183610ab8565b915061092c82610bea565b604082019050919050565b6000610944602083610ab8565b915061094f82610c39565b602082019050919050565b6000610967602183610ab8565b915061097282610c62565b604082019050919050565b61098681610b19565b82525050565b60006020820190506109a1600083018461088d565b92915050565b60006020820190506109bc600083018461087e565b92915050565b60006020820190506109d7600083018461089c565b92915050565b600060208201905081810360008301526109f6816108ab565b9050919050565b60006020820190508181036000830152610a16816108ce565b9050919050565b60006020820190508181036000830152610a36816108f1565b9050919050565b60006020820190508181036000830152610a5681610914565b9050919050565b60006020820190508181036000830152610a7681610937565b9050919050565b60006020820190508181036000830152610a968161095a565b9050919050565b6000602082019050610ab2600083018461097d565b92915050565b600082825260208201905092915050565b6000610ad482610af9565b9050919050565b6000610ae682610af9565b9050919050565b60008115159050919050565b600073ffffffffffffffffffffffffffffffffffffffff82169050919050565b6000819050919050565b7f46756e64732068617665206e6f74206265656e206465706f736974656420796560008201527f7400000000000000000000000000000000000000000000000000000000000000602082015250565b7f416d6f756e742073686f756c642062652067726561746572207468616e203000600082015250565b7f46756e6473206861766520616c7265616479206265656e206465706f7369746560008201527f6400000000000000000000000000000000000000000000000000000000000000602082015250565b7f4f6e6c792070617965722063616e2063616c6c20746869732066756e6374696f60008201527f6e00000000000000000000000000000000000000000000000000000000000000602082015250565b7f457363726f772068617320616c7265616479206265656e2072656c6561736564600082015250565b7f4f6e6c792070617965652063616e2063616c6c20746869732066756e6374696f60008201527f6e0000000000000000000000000000000000000000000000000000000000000060208201525056fea2646970667358221220b7b4ffc563ca9b038b2cb4a5804db47a74f85d376a24f026373de99b9784aeee64736f6c63430008060033",
  "immutableReferences": {},
  "source": "// EscrowContract.sol\r\n\r\n// SPDX-License-Identifier: MIT\r\npragma solidity ^0.8.6;\r\n\r\ncontract EscrowContract {\r\n    address payable public payer;  // Make payer payable\r\n    address payable public payee;\r\n    address public arbiter;\r\n    uint256 public amount;\r\n    bool public releaseApproved;\r\n    bool public fundsDeposited;\r\n\r\n    event FundsDeposited(address indexed payer, uint256 amount);\r\n    event ReleaseApproved(address indexed payer, address indexed payee, uint256 amount);\r\n    event FundsWithdrawn(address indexed payer, uint256 amount);\r\n\r\n    constructor(address _payee, address _arbiter) {\r\n        payer = payable(msg.sender);\r\n        payee = payable(_payee);\r\n        arbiter = _arbiter;\r\n        releaseApproved = false;\r\n        fundsDeposited = false;\r\n    }\r\n\r\n    modifier onlyPayer() {\r\n        require(msg.sender == payer, \"Only payer can call this function\");\r\n        _;\r\n    }\r\n\r\n    modifier onlyPayee() {\r\n        require(msg.sender == payee, \"Only payee can call this function\");\r\n        _;\r\n    }\r\n\r\n    modifier onlyArbiter() {\r\n        require(msg.sender == arbiter, \"Only arbiter can call this function\");\r\n        _;\r\n    }\r\n\r\n    modifier escrowNotReleased() {\r\n        require(!releaseApproved, \"Escrow has already been released\");\r\n        _;\r\n    }\r\n\r\n    modifier escrowFundsDeposited() {\r\n        require(fundsDeposited, \"Funds have not been deposited yet\");\r\n        _;\r\n    }\r\n\r\n    function deposit() external payable onlyPayer {\r\n        require(!fundsDeposited, \"Funds have already been deposited\");\r\n        require(msg.value > 0, \"Amount should be greater than 0\");\r\n        amount = msg.value;\r\n        fundsDeposited = true;\r\n        emit FundsDeposited(payer, amount);\r\n    }\r\n\r\n    function releaseToPayee() external onlyPayee escrowNotReleased escrowFundsDeposited {\r\n        releaseApproved = true;\r\n        payee.transfer(amount);\r\n        emit ReleaseApproved(payer, payee, amount);\r\n    }\r\n\r\n    function withdraw() external onlyPayer escrowNotReleased escrowFundsDeposited {\r\n        payer.transfer(amount);\r\n        emit FundsWithdrawn(payer, amount);\r\n    }\r\n}",
  "sourcePath": "C:\\Users\\Hp\\Documents\\GitHub\\EscrowSystem\\escrow\\contracts\\EscrowContract.sol",
  "compiler": {
    "name": "solc",
    "version": "0.8.6+commit.11564f7e.Emscripten.clang"
  },
  "schemaVersion": "3.4.16",
  "updatedAt": "2024-03-08T19:04:35.659Z",
  "devdoc": {
    "kind": "dev",
    "methods": {},
    "version": 1
  },
  "userdoc": {
    "kind": "user",
    "methods": {},
    "version": 1
  }
}